:1000000000800020BD010000F1150000BD150000BA
:10001000BD150000BD150000BD150000BD15000098
:10002000BD150000BD150000BD150000F115000054
:10003000F1150000BD150000F1150000AD15000020
:10004000F1150000F1150000F1150000F115000098
:10005000F1150000F1150000F1150000F115000088
:10006000F1150000F1150000F1150000F115000078
:10007000F1150000F1150000F1150000F115000068
:10008000F1150000F1150000F1150000F115000058
:10009000F1150000F1150000F1150000F115000048
:1000A000F1150000F1150000F1150000F115000038
:1000B000F1150000F1150000F1150000F115000028
:1000C000F1150000F1150000F1150000F115000018
:1000D000F1150000F1150000F1150000F115000008
:1000E000F1150000F1150000F1150000F1150000F8
:1000F000F1150000391A0000F1150000D91E0000AA
:10010000F1150000A5220000F1150000F115000016
:10011000F1150000F1150000F1150000F1150000C7
:10012000F1150000F1150000F1150000F1150000B7
:10013000F1150000F1150000F1150000F1150000A7
:10014000F1150000F1150000F1150000F115000097
:10015000F1150000F1150000F1150000F115000087
:10016000F1150000D5090000F1150000F11500009F
:10017000F1150000F1150000F1150000F115000067
:10018000F1150000F1150000F1150000F115000057
:10019000F1150000F1150000F1150000F115000047
:1001A000F1150000F1150000F1150000F115000037
:1001B000F1150000F1150000F1150000564B4CF24E
:1001C000205210B51A804DF628121A8000BF00BFC9
:1001D00001F012FA514B4FF010621A60504A9A60C7
:1001E000504ADA60A3F53043203B1A6812F480725B
:1001F00004D14D490A604FF4A8521A604B4B1A784B
:10020000110703D51A7842F008021A70484B2A22C7
:100210001A700023474A48499818884204D247492F
:10022000595899500433F5E7454A464B9A424FF0E6
:10023000000302D242F8043BF7E74349434A5958C6
:1002400099500433B3F5DE7FF7D1414B802103F899
:10025000011B40498B42F9D13F4B1A603F4B0A22A8
:100260001A70A3F5805324225A70A0221A709A792A
:100270009207FCD59A79D406FCD4394B9A7902F0CE
:100280000C02082AF9D103221A7140225A719A7974
:100290009006FCD5324B9A795106FBD5314A32494A
:1002A00011600221516020221A702D4B9B7903F0BE
:1002B0000C030C2BF9D12D4B2D4A1A602D4B2E4AD5
:1002C0001A6000225A60072243F8042C2B4AC3F814
:1002D0000C2D62B600F066FA134B1B68DA0705D5E1
:1002E000274800F0E1F9274B274A1A60274B1B7873
:1002F0005B0609D5234C244A2368934204D1204845
:1003000000F0D2F90023236002F0B0F901F07AF98D
:1003100000F0ECFFFEE700BF0E20054030800440F7
:10032000823F04000100002B14D0034002D007409C
:1003300000E007406087FF1F1088FF1F682A000049
:100340001088FF1FF88AFF1F000000000082FF1FB7
:1003500000E400E05FE400E008ED00E0005006404B
:100360000040064044800440000003010480044033
:10037000C010050014E000E0FF760100000020201E
:1003800000DD68501CE00340A5C3945A00F007400C
:10039000FFFFFFFFFFFFFFFFFFFFFFFFFFFFFFFF6D
:1003A000FFFFFFFFFFFFFFFFFFFFFFFFFFFFFFFF5D
:1003B000FFFFFFFFFFFFFFFFFFFFFFFFFFFFFFFF4D
:1003C000FFFFFFFFFFFFFFFFFFFFFFFFFFFFFFFF3D
:1003D000FFFFFFFFFFFFFFFFFFFFFFFFFFFFFFFF2D
:1003E000FFFFFFFFFFFFFFFFFFFFFFFFFFFFFFFF1D
:1003F000FFFFFFFFFFFFFFFFFFFFFFFFFFFFFFFF0D
:10040000FFFFFFFFFFFFFFFFFFFFFFFFFEFFFFFFFD
:1004100010B5054C237833B9044B13B10448AFF33E
:1004200000800123237010BD1088FF1F0000000012
:10043000682A000008B5064B1BB106480649AFF311
:1004400000800648036813B1054B03B1984708BD07
:1004500000000000682A00001488FF1F1088FF1F9A
:100460000000000038B5044608460D4602F024F9A5
:10047000236802465B6820462946984738BD38B550
:100480000446FFF7EFFF0546204600F037FF2844FB
:1004900038BDFFFF10B5164C204600F02FFF00F0CE
:1004A000D3FE14492046FFF7DDFF00F0CDFE1249D0
:1004B0002046FFF7E4FF00F0C7FE10492046FFF793
:1004C000D1FF00F0C1FE0E492046FFF7D8FF00F033
:1004D000BBFE0C492046FFF7C5FF00F0B5FE2046E5
:1004E0000949FFF7CCFFBDE8104000F0ADBE00BFEA
:1004F0003089FF1FC8260000F9260000D926000019
:10050000E2260000ED260000FA260000002AF0B5E1
:100510000CBF4FF064524FF0605200240F4E104F4A
:10052000A65B104D97FBF6F6B14255F8145004D374
:10053000190706D542F0806203E002342E2CEDD17B
:10054000F6E75B0707D525F4704305F4704542F0E4
:10055000007243EA15152A430260F0BD70280000BE
:10056000006CDC02A028000010B50446FFF7CEFFA7
:10057000204610BD054B4FF00042DA625863DA6A3C
:10058000002AFCDA014B986BC0B2704700C00240F1
:1005900007B5FFF77FFF0A20012100F0B5F80A2018
:1005A000012100F091F80E20012100F0ADF80E209D
:1005B000012100F089F800F03FFF084901220023E3
:1005C00001A8FFF7D1FF019800F07CFF4FF47A708B
:1005D00000F0D4F803B05DF804FB00BF00093D0053
:1005E00038B50E20012100F06FF80A20002100F03C
:1005F0006BF80024274B185D0134FFF7BBFF0A2C72
:10060000F8D14FF4A073013B7FF4FDAF01212046E8
:1006100000F05AF820492148FFF731FF4FF47A7073
:1006200000F0ACF80E20002100F04EF8204600212A
:1006300000F04AF8FF20FFF79DFF0024FF20FFF79E
:1006400099FF174B185501340A2C1D46F6D14FF46B
:10065000A072013A7FF4FDAF10481249FFF70FFF77
:100660000024295D0D480A22002300F057FE0134C2
:100670000A4800F043FE0A2CF3D1084800F03EFE81
:100680002046012100F020F84FF4FA60BDE8384020
:1006900000F074B86087FF1F172700003089FF1F24
:1006A0002C88FF1F2B270000044B054900221A60ED
:1006B0000A60044A106010221A60704714D0034088
:1006C00004D0034000D00340212810B518D80D4AAB
:1006D00052F8303093F880423CB1012211B183F8D6
:1006E000802010BD83F8002110BD02EBC0004368DC
:1006F0001A6811B142F0030201E022F002021A600E
:1007000010BD00BF38270000212816D80B4A02EB85
:10071000C00301295B6852F8302004D182F88012AE
:100720004FF4A27208E0002082F8800211B94FF461
:10073000807201E040F203121A607047382700000F
:1007400072B60B4B0B491A680B4B1B68096862B6F3
:10075000490102D5322A88BF0133C2F5BB3260217C
:10076000FF32B2FBF1F24FF47A7000FB03207047C6
:1007700018E000E004ED00E03888FF1F38B50446BB
:10078000FFF7DEFF054664B1FFF7DAFF401BB0F567
:100790007A7F03D3013C04D005F57A7500F014FE8E
:1007A000F2E738BD1F4B4FF4000210B51A604FF04E
:1007B00080721A604FF000721A604FF080621A6007
:1007C0004FF000621A60184B184A194C00204BF683
:1007D000FF7118605960282313609360136193615F
:1007E00013629362136393630922226004F58054B9
:1007F000043420606160A360236144F8042C04F594
:10080000FE2420600B4801600B490B608B600B4B92
:100810001A6000F06FFE0420FFF7B0FFBDE8104043
:1008200000F0CEBB08E100E0048003400C800340F0
:100830000080034008800B400C800B4000800B4080
:10084000F0B50C4B0C4C1A7842F0020504EBC506CF
:1008500082F00102706009481A700678002E0CBF01
:100860008827C82786F0010647EA0141067044F848
:100870003510F0BDA488FF1F0080FF1F1C89FF1FDB
:10088000431E032B10B510D872B6094A52F8230044
:1008900048B1416842F82310064A018832F81340F3
:1008A000611A22F8131062B610BD002010BD00BFFF
:1008B0009488FF1FE88AFF1F013803280AD872B600
:1008C000054B53F82030002013B101305B68FBE783
:1008D00062B6704700207047E888FF1F10B572B6F7
:1008E0000123174A1A4412F8012C12071CD599004B
:1008F000144A52F831402CB902EB431308305860C7
:10090000114B09E041F0010152F8314064B902EBAA
:10091000C103083058600D4B42F831300C4B1A7847
:10092000013A1A7062B610BD0133052BD9D162B6F7
:10093000074B00221A70BDE8104000F09FBB00BFBB
:10094000FC2800000080FF1F88004000C800400015
:100950001289FF1F431E032B30B532D8194A4001BC
:1009600040F01000104472B6174CE25C032A09D81C
:10097000DFE802F0160218050830022213E0083002
:10098000042210E01148124A50F8234014B940F8EC
:10099000231002E052F82300416042F823100FE0D8
:1009A000032200E00522E25410F0080F01F10803D1
:1009B0000A8843600CBF8823C82343EA02430360CC
:1009C00062B630BD0080FF1F5088FF1FE888FF1F00
:1009D000F888FF1F2DE9F84FAB4F3C78E4B214F0D4
:1009E000040F3D4619D0A94B1B78A3B1A84A117832
:1009F00001F0FF0321B1013BDBB2137003B900BE6C
:100A0000A44A117801F0FF0329B1013BDBB2137056
:100A10000BB900F047FC04233B7004F0080303F01B
:100A2000FF02002B00F063829B4B9C4C1A78D2B2E1
:100A300015094FEA920840F0E08104EBC8035968B9
:100A400054F83830C3F38303013B0C2B00F2D281FE
:100A5000DFE813F091019101D001D001D001D00164
:100A6000D001D001AC01D001D001D0010D008C4DDE
:100A70000A684B688B486B6001218B4B44F8383017
:100A80002A60DFF85082017092B240F28160002348
:100A90008242C8F800302361A36117D8B2F5D06F45
:100AA00080F01E81B2F5817F00F0CF8006D8802AC9
:100AB00000F0BA80822A00F0BB802DE140F20233C0
:100AC0009A4200F0D180B2F5A06F1CE042F2210002
:100AD000824200F04D810ED8B2F5086F00F09E8082
:100AE000B2F5106F40F01881684B6C4EAA781A70FE
:100AF00006F180090AE042F221218A4200F00881D1
:100B000042F221339A4200F00B8105E1336A1B0661
:100B100003D5706A083800F0B1FA08364E45F5D1B1
:100B20000026B146DFF8B0A156F80A0028B1D0F887
:100B300004B000F0A3FA5846F8E74AF806005B4B09
:100B4000DFF898A1F05056F80A0028B1D0F804B0A8
:100B500000F094FA5846F8E7554B4AF80600F05072
:100B6000544B23F81900544B19F80320023A032A76
:100B700008D8DFE802F002040204002200E00122AB
:100B800003F8092009F10109B9F1040F06F104067F
:100B9000C8D14A4B00221A7001269A46484A494B4E
:100BA0003244334412F8012C9B0012F0080F1A70E3
:100BB0004FEA860925D000F043FA38B104EB46131A
:100BC00008305860404B44F8393006E09AF800305D
:100BD00044F8390001338AF8003000F031FA49F066
:100BE000010338B104EBC302083050602E4A44F8C8
:100BF000332006E044F833009AF8003001338AF8D5
:100C0000003049F00202013649F003090023052EA5
:100C100044F8323044F83930C0D182E01B4B2B4CC1
:100C20001B7823700B467FE0284C237063707AE0BA
:100C3000AA88042A70D8254C920023706370244B34
:100C40009B5C9E076FD521706DE0AA8802F07F0340
:100C5000042B61DC6B88002B5ED191001C4A0A4496
:100C6000117821F0020155E0AA8802F07F03042BDD
:100C700052DC6B88002B4FD19100154A0A44117841
:100C800041F0020146E000BF802007401B89FF1FA2
:100C9000A588FF1F1D89FF1F902007400080FF1FB0
:100CA0000889FF1F1C89FF1FC80040004088FF1FE4
:100CB000F888FF1FE88AFF1F5088FF1F1289FF1F57
:100CC000FC28000030C80110880040001389FF1F75
:100CD000C02007403C88FF1F9488FF1FE888FF1F43
:100CE0006A88A9889D4B53F8084CA3F10C009CB16D
:100CF00033F80C6C964209D133F80A6C8E4205D158
:100D0000120A032A0CBF237803890DE00C33EAE7AB
:100D1000A978934A117004E0924B0F221A7027E0D1
:100D200000231C4600E00223EE88B34238BF1E4673
:100D3000402E34BF3546402520462946FFF780FD2A
:100D4000761B2C4403D1402D12D1354603E0402EB2
:100D500034BF3546402520462946FFF771FD761BF6
:100D60002C4401D1402D03D17F4AC8F800401680A1
:100D700001227E4B3DE07E4B1A8842F221039A42CB
:100D800010D100237B4AC85C98540133072BF9D15A
:100D90001368862B02D1784B0F221A70002001466F
:100DA000FFF74EFD754B44F8383023E0744E35683C
:100DB000B5B1DFF8B481B8F80090B9F1400F34BF95
:100DC0004C46402428462146FFF73AFDC4EB090370
:100DD0009BB2A8F800300BB9402C00D12B1933601E
:100DE000634B1A88B2F5A06F04D100225A709A782A
:100DF000644B1A7001225D4B6CE004EBC806013DA8
:100E0000736802F00802A3F10800EDB202F0FF01DE
:100E1000002A36D000F032F95B485C4B50F82520B0
:100E2000EAB1516840F8251002F108017160595D7E
:100E300003290BD8DFE801F002040608032104E0CF
:100E4000022102E0052100E00421595516F0080FA7
:100E500012880CBF8823C82343EA024342E05A5D4C
:100E6000032A07D8DFE802F040400204002206E02F
:100E7000012204E016F0080F0CBF022203225A558B
:100E800032E054F83820120C23F8082C22B3DFF893
:100E90002CE123F8061C43F8041C5EF825303C497D
:100EA00013B94EF8250002E051F825305860394B4F
:100EB00041F8250033F815100A4423F8152000F0F6
:100EC000BFF810B10830706006E0334B44F83800CA
:100ED0001A7801321A7007E0284B304A16F0080FD2
:100EE00008BF134644F8383008233B7074E5E00728
:100EF0001FD51E4929482A4C02230B70294B1A7012
:100F0000294B186098602948D8601A619A615C6022
:100F1000144B0D2018702648FF2303702B700274A9
:100F2000244A1370244B9F221A7001230B70BDE8D2
:100F3000F88F210604D50B4B0D221A7080232B70DD
:100F4000A20705D51A4B1A78D2B21A7002232B7059
:100F5000E30644BF10232B70BDE8F88F0C29000076
:100F60002C89FF1FC02007401089FF1F94200740D5
:100F70000889FF1FF08AFF1FA588FF1FC8004000D7
:100F80003C88FF1F98200740E888FF1F5088FF1FFC
:100F90004088FF1FE88AFF1F1289FF1F880040005A
:100FA0005488FF1FA488FF1F0080FF1FA888FF1F11
:100FB000882007408C200740842007409488FF1F2A
:100FC00008B501F0C5F900221A4B0021D15098183C
:100FD0000832882A4160F7D1174A106840F480200F
:100FE000106002F528326832C3F307201070C3F393
:100FF00007401B0E10751376FF2302F81C3C02F805
:10100000143C02F88C3C012302F8083C82F864107E
:1010100002F8183C094B70226FF450711A700B449F
:101020004FF400721A6003F1C04303F5C823102285
:101030001A7008BD0080FF1F3480044049E400E0BE
:1010400072B60C4A1168B1FA81F30B2B02D962B661
:10105000002070474FF00040D84021EA00011160A5
:1010600062B6054948225343C8180022CA5042605C
:10107000704700BF6C87FF1F0084FF1F0C4B482286
:10108000C31AB3FBF2F30B2B11D80A4A127822B120
:10109000094A12780AB1FFF721BC72B6074A4FF02D
:1010A000004121FA03F311681943116062B67047D9
:1010B0000084FF1F1289FF1F1B89FF1F6C87FF1F02
:1010C00010B5104C23686BB120684288531C024451
:1010D000147A0288934212D3FFF7D0FF094B002203
:1010E0001A600DE0084B1B7813B94FF0FF3010BDAC
:1010F0000320FFF7C5FB20600028E5D1F5E743801A
:10110000204610BD2889FF1F1B89FF1F10B50B4CFF
:10111000236813B123686BB902E0094B1B7813B93C
:101120004FF0FF3010BD0320FFF7AAFB206000281E
:10113000F0D1F5E75A881344187A10BD2889FF1FAB
:101140001B89FF1F044B9888044B1B681BB11A882E
:101150005B88D31A18447047E88AFF1F2889FF1F4D
:101160002DE9F8432D4E012307460C463370002C21
:101170004FD02B4D2B68A9462BBB4AF2F928294B9F
:101180001B7803F0FF020BB9327015E00420FFF763
:1011900093FB072808D801233370FFF751FFC9F8E4
:1011A000000080B91D4B1870B8F101081E4B01D02A
:1011B0001A782AB101221A704FF0FF30BDE8F88387
:1011C00000F002F9DBE72968174A4888002313700A
:1011D000C0F14002944238BF224600F1080C10448E
:1011E0008C444880A41A934204D0F85C0CF80300A5
:1011F0000133F8E71F444B883F2B06D940230B806F
:101200000420FFF7A7FB00232B60084B05221A7070
:10121000ADE734702046BDE8F88300BF1E89FF1F8C
:101220002089FF1F1B89FF1F2489FF1F1D89FF1FA6
:1012300007B502AB012103F8010D1846FFF790FF37
:1012400003B05DF804FBFFFF2DE9F041114B1B7863
:10125000F3B1114E114B3468114D01271F709846A0
:101260004CB1002763882F70042023802146FFF7AC
:1012700071FB376009E0FFF7E3FE014620B104206F
:101280002C70FFF767FB00E02F70002388F8003018
:10129000BDE8F0811B89FF1F2089FF1F1E89FF1FEA
:1012A0001D89FF1F38B50E4B1B7803F0FF05ABB946
:1012B0000C4C216831B14B880B800420FFF74AFBAE
:1012C000256038BDFFF7BCFE014620B10420BDE813
:1012D0003840FFF73FBB044B01221A7038BD00BFF6
:1012E0001E89FF1F2089FF1F1D89FF1F08B5FFF7FB
:1012F0004FF9FFF775F900F067F8FAE707B5064B05
:101300001B88ADF80430036801A95B680222984786
:1013100003B05DF804FB00BF4828000070B5054627
:101320008AB022B90368C9B21B6898472CE0012A29
:1013300008BF0A2221B930228DF82520212413E08C
:101340002124B1FBF2F002FB1011C9B209290AAE47
:1013500094BF303137312644C9B206F8241C014607
:1013600010B1013CE4B2ECE733B1013CE4B20AABAA
:1013700023442D2203F8242C2B6801A95B682846FE
:101380002144C4F1220298470AB070BDFFF7DABECB
:10139000FFF796BEFFF7BABEFFF756BF0846FFF746
:1013A00047BF08461146FFF7DBBE7047044B0022DB
:1013B0001A714FF47A711A73024A99601A60704771
:1013C0003089FF1F5828000010B50E4C2378BBB998
:1013D00001232370FFF7B6FE08B1FFF7E6FF00F028
:1013E000CBFA08B101F04EF800F016FD08B101F09B
:1013F000BBF800F00BFF08B101F028F900232370BF
:1014000010BD00BF4089FF1F094BDA68824210B54A
:101410000DD01A6812F4804F40F0804102D0D8609D
:10142000196110BD034C1C60D86019611A6010BDB1
:1014300000C0024001401F00164B1A6842F480525F
:101440001A60154B154A1A60154ADA6002F180429B
:101450001A61144A1A60144B1B78DA0755BF134AF5
:10146000134A4FF410714FF4007113F0020F116022
:101470000CBF104910495B074FF4007254BF0F4B6B
:101480000F4B0A6054BF4FF410724FF400721A6091
:10149000704700BF3C80044000C0024001401F0074
:1014A0000110003800001F80B58AFF1F18B00440EB
:1014B00008C004401CB004400CC0044014B00440F8
:1014C00004C00440094B1A6842F480521A60084B69
:1014D000DB6803F0E0629B0105D520F4704300F463
:1014E000704043EA10101043FFF78EBF3C80044069
:1014F00000C0024010B5204B2048214960221A70DC
:10150000E1225A701F4B204A1C78204B082C01D135
:10151000012402E00A2C03D139240460132005E0E1
:101520000C2C0CBF35243D2404601220086014608C
:101530001860174B17491B78174A03B101230B603A
:101540001360164B164A1978164B012901D88021D1
:101550000BE0042901D8842107E0082901D885215E
:1015600003E0102994BF86218721116019600E4B7A
:1015700001221A7010BD00BF0040074008B00340B0
:101580000CB003407087FF1F08B00B400CB00B403D
:101590004289FF1F20B0034020B00B407187FF1F1E
:1015A00024B0034024B00B404189FF1F024B1A684E
:1015B00001321A60704700BF3888FF1F08B50B4C16
:1015C0002368580301D5FFF705FA2368590501D5AB
:1015D00000F032FA23681A0501D500F07DFC23687B
:1015E000DB04ECD500F05EFEE9E700BF3480044088
:1015F00008B5FFF7E3FFFFFF014B10221A80704789
:10160000002005407047FFFFEFF313839BB9EFF312
:10161000108098B9EFF3058323B10F2B04D9084A42
:10162000985C01E04FF48070EFF311833BB183428B
:1016300038BF184670474FF0FF3070471846704764
:10164000F0E300E010B50023B0FBF2F402FB14005D
:10165000092894BF30303730C0B2C85420460CB18E
:101660000133F1E7CA18547022469A4206DA885CC0
:10167000CC5C8C54C8540132013BF6E7084610BDDF
:10168000194B1A6842F480621A60184A00231370DA
:10169000174A1370174A1370174A1370174A1370BA
:1016A000174B40F213321A604FF451725A60154BC7
:1016B000C0F344321A70C0F347125A700221042258
:1016C00000F01F0098729A70D9745A7588221A74A3
:1016D0003C22DA700C4B40226FF44A711A700B44B2
:1016E0004FF400521A60704734800440C589FF1FD0
:1016F0004489FF1FCC89FF1FC689FF1F4389FF1F35
:1017000040A0044000A006402DE400E0134A937876
:1017100000F0030103F0EC030B43410748BF43F023
:101720001003937000F00F03042B0C4903D18B7945
:1017300043F040038B715379C20603F0EF03074A6D
:1017400048BF43F0100353719379810603F0EF0310
:1017500048BF43F010039371704700BF00A00640DC
:1017600008B50E4B1B685B0500D408BD0C4B1A78FE
:1017700002F0FF0312B1FFF727FEF7E7094A4FF423
:1017800000511160084A0949D37040F203120A60FF
:101790004A60074A1370074A137008BD348004403A
:1017A0004389FF1F84E100E000A0064040A0044000
:1017B000C589FF1F4489FF1F38B50446094B1B78B4
:1017C00003F0FF05002BF9D120460121FEF79CFF15
:1017D00020462946FEF778FF034B53F83420034B8D
:1017E0001A6038BD4389FF1F38270000C889FF1FD2
:1017F000F8B51D4B1B685A05064633D51B4B1B68B5
:101800000BB101221A701A4B1C780134402C1F4670
:1018100028BF0024174D2B78A34218D1FFF7F4FE00
:1018200040280FDC144A13791B06F3D52B78134993
:101830000133402B28BF0023C95CDBB2C9B2D17190
:101840002B70E7E7FF28E5DDFFF7BEFDE2E70B4B76
:10185000F6B21E550A4B01221A70074BE4B2BC22A5
:101860003C70DA70F8BD00BF34800440C889FF1FA7
:10187000CC89FF1FC689FF1F00A006404589FF1FB6
:101880004389FF1F274B1B685A052DE9F047074680
:101890008A4644D5244B1B680BB101221A703D4681
:1018A00007EB0A039D4237D2DFF890801F4E98F86D
:1018B000004096F800900134402C28BF00245FFAC5
:1018C00089F9A1451DD11A4BBC22DA70FFF79CFEA5
:1018D00040280FDC164A13791B060FD533781549BB
:1018E0000133402B28BF0023C95CDBB2C9B2D171E0
:1018F000337003E0FF2801DDFFF766FD33784B45C9
:10190000E4D00C4B15F8012B1A550B4B0122E4B215
:101910001A7088F80040C3E7054BBC22DA70BDE8B6
:10192000F08700BF34800440C889FF1FC689FF1FAD
:1019300000A006404589FF1F4389FF1FCC89FF1F78
:1019400008B5034B1B7813B1FFF73EFDF9E708BD5F
:101950004389FF1F064A074B1B781078DBB2C0B2E1
:1019600083422CBF3F3000F1FF30C01A704700BFE8
:10197000C689FF1FCC89FF1F054B1878054B1B78C4
:10198000C0B2DBB2984238BF4030C01A704700BFC7
:10199000C589FF1F4489FF1F094B0A4A197813782C
:1019A000DBB2994208D00133402B28BF00230649FF
:1019B000C85CDBB2137070474FF0FF30704700BF58
:1019C000C589FF1F4489FF1F8589FF1F084B1A78AF
:1019D000084B1B78DBB29A4207D00133402B28BF5B
:1019E0000023054AD05CC0B270474FF0FF3070470B
:1019F000C589FF1F4489FF1F8589FF1F0A4B1B688C
:101A00005B050FD5094BDA7802F0CB02DA70402281
:101A10005A74DA7842F03402DA70054B1A78054BC2
:101A2000D2B21A70704700BF3480044000A0064054
:101A30004489FF1FC589FF1F30B5304B1A7912F05A
:101A4000300F23D072B69A7D02F0FF0122B9DA7905
:101A500040225A7462B619E062B6294B29481A78B6
:101A60000478D2B2E4B21846244BDD79531C402BE3
:101A700028BF0023A342EDB202D0234AD5541A4610
:101A80004B1E13F0FF01EFD1D2B202701B4BD9787D
:101A9000C9B20C0620D51B7918061DD51B4B1C4A54
:101AA0001D781378EDB2DBB21046AB420CD0134A6E
:101AB0000133402B1479174C28BF0023E45CE4B2B7
:101AC000D471127D072AF0D9DBB203700B4B1A795F
:101AD000120644BF7C22DA704B060ED5074B1A79EA
:101AE00012F0400F194608D00B4B00221A700B4B16
:101AF0001B6803B11A703C23CB7030BD00A00640B8
:101B0000C589FF1F4489FF1F8589FF1FCC89FF1FDF
:101B1000C689FF1F4589FF1F4389FF1FC889FF1F13
:101B2000194B1A6842F400621A60184A00231370B5
:101B3000174A1370174A1370174A1370174A137015
:101B4000174B40F213321A604FF451725A60154B22
:101B5000C0F344321A70C0F347125A7000F01F00ED
:101B60000422022198729A70D9745A7588221A74C4
:101B70003C22DA700C4B40221A70A3F22B334FF444
:101B800000421A60704700BF34800440378AFF1F4C
:101B9000CE89FF1F408AFF1F388AFF1FCD89FF1F94
:101BA0000CB0044000B006402FE400E0134A9378E4
:101BB00000F0030103F0EC030B43410748BF43F07F
:101BC0001003937000F00F03042B0C4903D18B79A1
:101BD00043F040038B715379C20603F0EF03074AC9
:101BE00048BF43F0100353719379810603F0EF036C
:101BF00048BF43F010039371704700BF00B0064028
:101C000008B50E4B1B681B0500D408BD0C4B1A7899
:101C100002F0FF0312B1FFF7D7FBF7E7094A4FF4D1
:101C200000411160084A0949D37040F203120A606A
:101C30004A60074A1370074A137008BD3480044095
:101C4000CD89FF1F84E100E000B006400CB00440E5
:101C5000378AFF1FCE89FF1F38B50446094B1B7812
:101C600003F0FF05002BF9D120460121FEF74CFDC2
:101C700020462946FEF728FD034B53F83420034B3A
:101C80001A6038BDCD89FF1F382700003C8AFF1F2E
:101C9000F8B51D4B1B681A05064633D51B4B1B6850
:101CA0000BB101221A701A4B1C780134282C1F46E4
:101CB00028BF0024174D2B78A34218D1FFF7A4FCAE
:101CC00040280FDC144A13791B06F3D52B781349EF
:101CD0000133282B28BF0023C95CDBB2C9B2D17104
:101CE0002B70E7E7FF28E5DDFFF76EFBE2E70B4B24
:101CF000F6B21E550A4B01221A70074BE4B2BC2201
:101D00003C70DA70F8BD00BF348004403C8AFF1F8D
:101D1000408AFF1F388AFF1F00B00640CF89FF1F8F
:101D2000CD89FF1F274B1B681A052DE9F047074691
:101D30008A4644D5244B1B680BB101221A703D46DC
:101D400007EB0A039D4237D2DFF890801F4E98F8C8
:101D5000004096F800900134282C28BF00245FFA38
:101D600089F9A1451DD11A4BBC22DA70FFF74CFC52
:101D700040280FDC164A13791B060FD53378154916
:101D80000133282B28BF0023C95CDBB2C9B2D17153
:101D9000337003E0FF2801DDFFF716FB33784B4576
:101DA000E4D00C4B15F8012B1A550B4B0122E4B271
:101DB0001A7088F80040C3E7054BBC22DA70BDE812
:101DC000F08700BF348004403C8AFF1F388AFF1F21
:101DD00000B00640CF89FF1FCD89FF1F408AFF1F3B
:101DE00008B5034B1B7813B1FFF7EEFAF9E708BD0E
:101DF000CD89FF1F064A074B1B781078DBB2C0B2B3
:101E000083422CBF273000F1FF30C01A704700BF5B
:101E1000388AFF1F408AFF1F054B1878054B1B7837
:101E2000C0B2DBB2984238BF4030C01A704700BF22
:101E3000378AFF1FCE89FF1F094B0A4A197813788A
:101E4000DBB2994208D00133402B28BF002306495A
:101E5000C85CDBB2137070474FF0FF30704700BFB3
:101E6000378AFF1FCE89FF1FF789FF1F084B1A789B
:101E7000084B1B78DBB29A4207D00133402B28BFB6
:101E80000023054AD05CC0B270474FF0FF30704766
:101E9000378AFF1FCE89FF1FF789FF1F0A4B1B6878
:101EA0001B050FD5094BDA7802F0CB02DA7040221D
:101EB0005A74DA7842F03402DA70054B1A78054B1E
:101EC000D2B21A70704700BF3480044000B00640A0
:101ED000CE89FF1F378AFF1F30B5304B1A7912F0B9
:101EE000300F23D072B69A7D02F0FF0122B9DA7961
:101EF00040225A7462B619E062B6294B29481A7812
:101F00000478D2B2E4B21846244BDD79531C402B3E
:101F100028BF0023A342EDB202D0234AD5541A466B
:101F20004B1E13F0FF01EFD1D2B202701B4BD978D8
:101F3000C9B20C0620D51B7918061DD51B4B1C4AAF
:101F40001D781378EDB2DBB21046AB420CD0134AC9
:101F50000133282B1479174C28BF0023E45CE4B22A
:101F6000D471127D072AF0D9DBB203700B4B1A79BA
:101F7000120644BF7C22DA704B060ED5074B1A7945
:101F800012F0400F194608D00B4B00221A700B4B71
:101F90001B6803B11A703C23CB7030BD00B0064003
:101FA000378AFF1FCE89FF1FF789FF1F408AFF1F57
:101FB000388AFF1FCF89FF1FCD89FF1F3C8AFF1F73
:101FC000174B1A6842F480521A60164A00231370A5
:101FD000154A1370154A1370154A1370154A137079
:101FE000154A40F2133111604FF451715160134A98
:101FF000C0F344311170C0F3471100F01F0051705D
:102000009072937013742C23D3700D4B40226FF495
:102010004B711A700B444FF400321A60704700BFC6
:1020200034800440AB8AFF1F428AFF1FB48AFF1F1F
:10203000AC8AFF1F418AFF1F08C0044000C0064051
:1020400031E400E0134A937800F0030103F0EC035D
:102050000B43410748BF43F01003937000F00F0398
:10206000042B0C4903D18B7943F040038B715379D6
:10207000C20603F0EF03074A48BF43F01003537151
:102080009379810603F0EF0348BF43F01003937187
:10209000704700BF00C0064008B50E4B1B68DB044C
:1020A00000D408BD0C4B1A7802F0FF0312B1FFF701
:1020B0008BF9F7E7094A4FF400311160084A0949E2
:1020C000D37040F203120A604A60074A1370074A4D
:1020D000137008BD34800440418AFF1F84E100E092
:1020E00000C0064008C00440AB8AFF1F428AFF1FA1
:1020F00038B50446094B1B7803F0FF05002BF9D1D6
:1021000020460121FEF700FB20462946FEF7DCFAB7
:10211000034B53F83420034B1A6038BD418AFF1F2C
:1021200038270000B08AFF1FF8B51D4B1B68DA0482
:10213000064633D51B4B1B680BB101221A701A4B94
:102140001C780134282C1F4628BF0024174D2B78FB
:10215000A34218D1FFF758FA40280FDC144A13792C
:102160001B06F3D52B7813490133282B28BF0023F6
:10217000C95CDBB2C9B2D1712B70E7E7FF28E5DD9E
:10218000FFF722F9E2E70B4BF6B21E550A4B01228C
:102190001A70074BE4B2AC223C70DA70F8BD00BF95
:1021A00034800440B08AFF1FB48AFF1FAC8AFF1F2F
:1021B00000C00640438AFF1F418AFF1F38B504460E
:1021C0004518AC4204D014F8010BFFF7ADFFF8E757
:1021D00038BDFFFF08B5034B1B7813B1FFF7F4F8C8
:1021E000F9E708BD418AFF1F064A074B1B781078A4
:1021F000DBB2C0B283422CBF273000F1FF30C01ADF
:10220000704700BFAC8AFF1FB48AFF1F054B1878C8
:10221000054B1B78C0B2DBB2984238BF4030C01AC1
:10222000704700BFAB8AFF1F428AFF1F094B0A4A53
:1022300019781378DBB2994208D00133402B28BFBC
:1022400000230649C85CDBB2137070474FF0FF30C3
:10225000704700BFAB8AFF1F428AFF1F6B8AFF1FB8
:10226000084B1A78084B1B78DBB29A4207D001332F
:10227000402B28BF0023054AD05CC0B270474FF006
:10228000FF307047AB8AFF1F428AFF1F6B8AFF1F18
:10229000024B1A78024BD2B21A707047428AFF1F63
:1022A000AB8AFF1F10B5214B1A7992060FD5204A31
:1022B000D87913781F490133402B097828BF0023B0
:1022C0008B42C0B203D01C49C854DBB21370174A0A
:1022D000D178C9B20C0616D51379180613D5174B49
:1022E00017481C780378DBB29C4202D16C23D37070
:1022F00009E00133282B28BF0023124CE45CDBB239
:10230000E4B2D47103704B060ED5084B1A7912F063
:10231000400F194608D00C4B00221A700B4B1B685B
:1023200003B11A702C23CB7010BD00BF00C0064053
:10233000AB8AFF1F428AFF1F6B8AFF1FB48AFF1FF1
:10234000AC8AFF1F438AFF1F418AFF1FB08AFF1F0D
:102350001FB572B6154B70221A70154A41211170C3
:102360000F2102F8011C80221A701A781206FCD57F
:10237000104B186862B6104B984298BF0A2301AC04
:1023800098BF584321460A22FFF75CF90023E15C1D
:102390000A4A29B102EB430001330A2B4180F6D1EE
:1023A00001335B00137004B010BD00BF0000024099
:1023B00007000240080002407F969800FA87FF1F3E
:1023C00008B50368C9B21B68984708BD08B503681B
:1023D000C9B21B68984708BD08B50368C9B21B6835
:1023E000984708BD08B50368C9B21B68984708BD7F
:1023F0004B0803F1376000F5D830B0FBF1F0FFF780
:102400003FB910B54B0803F1376000F5D8301446DA
:10241000B0FBF1F0FFF734F92046BDE81040FFF7BC
:1024200075B9FFF79DB90846FFF7C6B9FFF7A4BA1B
:10243000FFF7CCBAFFF7B0BAFFF782BAFFF7DEBA00
:10244000FFF788BA08B50846FFF7D2F9012008BDA2
:1024500008B50846FFF7CCF9012008BD10B50846BD
:1024600014461146FFF70EFA204610BD38B508464F
:102470000D4600F021F9044621462846FFF702FAEE
:10248000204638BD7047FFFF044B00221A714FF4FD
:102490007A711A73024A99601A607047B88AFF1FEE
:1024A0006029000008B50368C9B21B68984708BDD9
:1024B00008B50368C9B21B68984708BD08B503682A
:1024C000C9B21B68984708BD08B50368C9B21B6844
:1024D000984708BD4B0803F1376000F5D830B0FBD2
:1024E000F1F0FFF71DBB10B54B0803F1376000F5A5
:1024F000D8301446B0FBF1F0FFF712FB2046BDE8E0
:102500001040FFF753BBFFF77BBB0846FFF7A4BBA8
:10251000FFF782BCFFF7AABCFFF78EBCFFF760BCD9
:10252000FFF7BCBCFFF766BC08B50846FFF7B0FB79
:10253000012008BD08B50846FFF7AAFB012008BD29
:1025400010B5084614461146FFF7ECFB204610BDB7
:1025500038B508460D4600F0AFF804462146284637
:10256000FFF7E0FB204638BD7047FFFF044B002219
:102570001A714FF47A711A73024A99601A6070479F
:10258000C88AFF1FB029000008B50368C9B21B68DC
:10259000984708BD08B50368C9B21B68984708BDCD
:1025A00008B50368C9B21B68984708BD08B5036839
:1025B000C9B21B68984708BD4B0803F1B76000F526
:1025C0005840B0FBF1F0FFF7FBBC10B54B0803F12E
:1025D000B76000F558401446B0FBF1F0FFF7F0FC8F
:1025E0002046BDE81040FFF72DBDFFF755BD08465A
:1025F000FFF77EBDFFF70ABEFFF732BEFFF716BE3C
:10260000FFF7E8BDFFF744BEFFF7EEBD08B508468B
:10261000FFF78AFD012008BD08B50846FFF784FDD5
:10262000012008BD10B5084614461146FFF7C6FD47
:10263000204610BD38B508460D4600F03DF804466A
:1026400021462846FFF7BAFD204638BD7047FFFFF8
:10265000044B00221A714FF47A711A73024A99607E
:102660001A607047D88AFF1F002A000070B50E4B11
:102670000E4DED1AAD1000241E46AC4204D056F8A3
:10268000242090470134F8E700F0DEF9084D094BAB
:10269000ED1AAD1000241E46AC4204D056F824209A
:1026A00090470134F8E770BD542A0000542A000016
:1026B000682A0000542A0000034613F8012B002A60
:1026C000FBD1181A01387047576F726B696E67201B
:1026D0004272616E63683A2000417574686F723AA5
:1026E0002000706F6F666A756E696F72004275695F
:1026F0006C6420446174653A2000467269204A6126
:102700006E2020312030303A33373A34382050535D
:102710005420323031360057726F746520756E73F5
:102720006F72746564206C69737400536F727465A2
:1027300064204C6973743A004008FE4340A0044092
:102740004408FE4344A004400018FE4300C0044077
:102750003000FE43309004403400FE433490044087
:102760001C18FE431CC004401018FE4310C0044057
:102770000818FE4308C004400C18FE430CC0044077
:102780000C10FE430CB004401010FE4310B0044087
:102790001810FE4318B004401C10FE431CB0044047
:1027A0001410FE4314B004400418FE4304C0044057
:1027B0000010FE4300B004400008FE4300A00440A7
:1027C0000408FE4304A004400C08FE430CA004408F
:1027D0000808FE4308A004401418FE4314C0044037
:1027E0001818FE4318C004400410FE4304B004400F
:1027F0000810FE4308B004401400FE431490044047
:102800004C08FE434CA004400420FE4304D0044086
:102810002410FE4324B004402010FE4320B00440A6
:102820002810FE4328B004402C10FE432CB0044076
:102830000020FE4300D004404808FE4348A0044066
:102840001000FE43109004400D0AFFFFFFFFFFFF42
:1028500000000000000000009D130000A313000012
:102860008D130000911300009513000099130000D0
:102870000200030004000500060008000A000C0026
:1028800010001400180020002800380040006000EC
:102890008000C00000018001000280020003FFFFF1
:1028A00000000080000001800000000000000280A5
:1028B00000000100011000000000020001100100F2
:1028C000032000000100020003200100043000008A
:1028D0000320020003200300054000000540010022
:1028E000065000000650010007600000076001006C
:1028F000087000000760020008700100001519153B
:10290000000100007287FF1F12000000000200009B
:102910009C87FF1F4300000000030000F687FF1F95
:1029200000000000010309048487FF1F000000006D
:1029300002030904E087FF1F0000000003030904ED
:10294000FA87FF1F000000000000000000000000E8
:1029500000000000FFFFFFFF00000000000000007B
:10296000452400005D2400002D24000035240000D3
:102970003124000039240000F1230000032400006A
:1029800023240000272400003D24000041240000EF
:10299000C1230000CD230000D9230000E52300005F
:1029A0006D24000051240000000000000000000021
:1029B00029250000412500001125000019250000EF
:1029C000152500001D250000D5240000E724000087
:1029D000072500000B25000021250000252500000B
:1029E000A5240000B1240000BD240000C92400007B
:1029F0005125000035250000000000000000000007
:102A00000D26000025260000F5250000FD2500000C
:102A1000F925000001260000B9250000CB250000A3
:102A2000EB250000EF250000052600000926000028
:102A30008925000095250000A1250000AD25000096
:102A40003526000019260000F8B500BFF8BC08BC08
:102A50009E46704735040000AD1300008924000035
:082A60006D2500005126000065
:102A6800080901030205040006070000FFFFFFFF35
:102A78000A041201000202000040C016830400018B
:102A88000102030118035400650065006E0073001D
:102A980079006400750069006E006F000902430048
:102AA800020100C0320904000001020201000524ED
:102AB8000010010524010101042402060524060072
:102AC800010705820310004009040100020A000002
:102AD80000070503024000000705840240000000CB
:102AE8001603550053004200200053006500720091
:102AF800690061006C00040309040C030000000075
:102B080000000000000000000000000000000000BD
:00000001FF
